{
  "_format": "hh-sol-artifact-1",
  "contractName": "EscrowFactory",
  "sourceName": "contracts/EscrowFactory.sol",
  "abi": [
    {
      "anonymous": false,
      "inputs": [
        {
          "indexed": true,
          "internalType": "address",
          "name": "escrowAddress",
          "type": "address"
        },
        {
          "indexed": true,
          "internalType": "address",
          "name": "buyer",
          "type": "address"
        },
        {
          "indexed": true,
          "internalType": "address",
          "name": "seller",
          "type": "address"
        },
        {
          "indexed": false,
          "internalType": "address",
          "name": "arbiter",
          "type": "address"
        }
      ],
      "name": "EscrowCreated",
      "type": "event"
    },
    {
      "inputs": [
        {
          "internalType": "address",
          "name": "_seller",
          "type": "address"
        },
        {
          "internalType": "address",
          "name": "_arbiter",
          "type": "address"
        }
      ],
      "name": "createEscrow",
      "outputs": [
        {
          "internalType": "address",
          "name": "",
          "type": "address"
        }
      ],
      "stateMutability": "nonpayable",
      "type": "function"
    },
    {
      "inputs": [
        {
          "internalType": "uint256",
          "name": "",
          "type": "uint256"
        }
      ],
      "name": "deployedEscrows",
      "outputs": [
        {
          "internalType": "address",
          "name": "",
          "type": "address"
        }
      ],
      "stateMutability": "view",
      "type": "function"
    },
    {
      "inputs": [],
      "name": "getDeployedEscrows",
      "outputs": [
        {
          "internalType": "address[]",
          "name": "",
          "type": "address[]"
        }
      ],
      "stateMutability": "view",
      "type": "function"
    }
  ],
  "bytecode": "0x608060405234801561001057600080fd5b5061126c806100206000396000f3fe608060405234801561001057600080fd5b50600436106100415760003560e01c8063323f114214610046578063834cc6fc14610076578063960a710114610089575b600080fd5b610059610054366004610222565b61009e565b6040516001600160a01b0390911681526020015b60405180910390f35b610059610084366004610257565b6100c8565b6100916101b3565b60405161006d919061028a565b600081815481106100ae57600080fd5b6000918252602090912001546001600160a01b0316905081565b60008033905060008185856040516100df90610215565b6001600160a01b03938416815291831660208301529091166040820152606001604051809103906000f08015801561011b573d6000803e3d6000fd5b50600080546001810182559080527f290decd9548b62a8d60345a988386fc84ba6bc95484008f6362f93160ef3e5630180546001600160a01b0319166001600160a01b038381169182179092556040518783168152929350839288831692861691907f9d6330c40b62e9b3318783aac74e1b766472a80cc5298f1a06e5106eb7c58a8e9060200160405180910390a495945050505050565b6060600080548060200260200160405190810160405280929190818152602001828054801561020b57602002820191906000526020600020905b81546001600160a01b031681526001909101906020018083116101ed575b5050505050905090565b610f5f806102d883390190565b60006020828403121561023457600080fd5b5035919050565b80356001600160a01b038116811461025257600080fd5b919050565b6000806040838503121561026a57600080fd5b6102738361023b565b91506102816020840161023b565b90509250929050565b6020808252825182820181905260009190848201906040850190845b818110156102cb5783516001600160a01b0316835292840192918401916001016102a6565b5090969550505050505056fe608060405234801561001057600080fd5b50604051610f5f380380610f5f83398101604081905261002f9161014b565b60016000556001600160a01b03831661008f5760405162461bcd60e51b815260206004820152601c60248201527f427579657220616464726573732063616e6e6f74206265207a65726f0000000060448201526064015b60405180910390fd5b6001600160a01b0382166100e55760405162461bcd60e51b815260206004820152601d60248201527f53656c6c657220616464726573732063616e6e6f74206265207a65726f0000006044820152606401610086565b600180546001600160a01b03199081166001600160a01b03958616179091556002805490911692841692909217909155600380546001600160a81b0319169190921617905561018e565b80516001600160a01b038116811461014657600080fd5b919050565b60008060006060848603121561016057600080fd5b6101698461012f565b92506101776020850161012f565b91506101856040850161012f565b90509250925092565b610dc28061019d6000396000f3fe6080604052600436106100a05760003560e01c80636daa2d44116100645780636daa2d44146102765780637150d8ae1461028b57806386d1a69f146102ab578063d8461182146102c0578063fe25e00a146102e0578063feb71d9a1461030057600080fd5b806308551a53146101b75780630c3f6acf146101f457806312065fe0146102225780631865c57d1461023d578063590e1ae31461025f57600080fd5b366101b2576001546001600160a01b031633146100d85760405162461bcd60e51b81526004016100cf90610c25565b60405180910390fd5b600080600354600160a01b900460ff1660068111156100f9576100f9610c66565b146101165760405162461bcd60e51b81526004016100cf90610c7c565b600034116101665760405162461bcd60e51b815260206004820152601860248201527f4d7573742073656e642045544820746f206465706f736974000000000000000060448201526064016100cf565b60038054600160a01b60ff60a01b1990911617905560405134815233907f2da466a7b24304f47e87fa2e1e5a81b9831ce54fec19055ce277ca2f39ba42c49060200160405180910390a2005b600080fd5b3480156101c357600080fd5b506002546101d7906001600160a01b031681565b6040516001600160a01b0390911681526020015b60405180910390f35b34801561020057600080fd5b5060035461021590600160a01b900460ff1681565b6040516101eb9190610ca3565b34801561022e57600080fd5b506040514781526020016101eb565b34801561024957600080fd5b50610252610315565b6040516101eb9190610ccb565b34801561026b57600080fd5b506102746104f9565b005b34801561028257600080fd5b50610274610685565b34801561029757600080fd5b506001546101d7906001600160a01b031681565b3480156102b757600080fd5b50610274610784565b3480156102cc57600080fd5b506102746102db366004610d19565b6108fe565b3480156102ec57600080fd5b506003546101d7906001600160a01b031681565b34801561030c57600080fd5b50610274610b0a565b60606000600354600160a01b900460ff16600681111561033757610337610c66565b03610367575060408051808201909152601081526f1055d05255125391d7d410565351539560821b602082015290565b6001600354600160a01b900460ff16600681111561038757610387610c66565b036103b857506040805180820190915260118152704157414954494e475f44454c495645525960781b602082015290565b6002600354600160a01b900460ff1660068111156103d8576103d8610c66565b036103ff575060408051808201909152600781526614d2125414115160ca1b602082015290565b60038054600160a01b900460ff16600681111561041e5761041e610c66565b036104465750604080518082019091526008815267111254d41555115160c21b602082015290565b6004600354600160a01b900460ff16600681111561046657610466610c66565b0361048e5750604080518082019091526008815267434f4d504c45544560c01b602082015290565b6005600354600160a01b900460ff1660068111156104ae576104ae610c66565b036104d65750604080518082019091526008815267149151955391115160c21b602082015290565b50604080518082019091526008815267149154d3d315915160c21b602082015290565b6003546001600160a01b031633146105235760405162461bcd60e51b81526004016100cf90610d49565b61052b610bfb565b600180600354600160a01b900460ff16600681111561054c5761054c610c66565b146105695760405162461bcd60e51b81526004016100cf90610c7c565b47806105ac5760405162461bcd60e51b8152602060048201526012602482015271139bc8199d5b991cc81d1bc81c99599d5b9960721b60448201526064016100cf565b6003805460ff60a01b1916600560a01b1790556001546040516000916001600160a01b03169083908381818185875af1925050503d806000811461060c576040519150601f19603f3d011682016040523d82523d6000602084013e610611565b606091505b505090508061063357604051630dcf35db60e41b815260040160405180910390fd5b6001546040518381526001600160a01b03909116907fd7dee2702d63ad89917b6a4da9981c90c4d24f8c2bdfd64c604ecae57d8d0651906020015b60405180910390a25050506106836001600055565b565b600180600354600160a01b900460ff1660068111156106a6576106a6610c66565b146106c35760405162461bcd60e51b81526004016100cf90610c7c565b6001546001600160a01b03163314806106e657506002546001600160a01b031633145b6107435760405162461bcd60e51b815260206004820152602860248201527f4f6e6c79206275796572206f722073656c6c65722063616e2072616973652061604482015267206469737075746560c01b60648201526084016100cf565b6003805460ff60a01b1916600360a01b17905560405133907f0b3cd97b16a08a5c77357c276d248827ad32dfd56060f7c55d6255537ba3d96290600090a250565b6001546001600160a01b031633146107ae5760405162461bcd60e51b81526004016100cf90610c25565b6107b6610bfb565b600280600354600160a01b900460ff1660068111156107d7576107d7610c66565b146107f45760405162461bcd60e51b81526004016100cf90610c7c565b47806108385760405162461bcd60e51b81526020600482015260136024820152724e6f2066756e647320746f2072656c6561736560681b60448201526064016100cf565b6003805460ff60a01b1916600160a21b1790556002546040516000916001600160a01b03169083908381818185875af1925050503d8060008114610898576040519150601f19603f3d011682016040523d82523d6000602084013e61089d565b606091505b50509050806108bf57604051630dcf35db60e41b815260040160405180910390fd5b6002546040518381526001600160a01b03909116907fb21fb52d5749b80f3182f8c6992236b5e5576681880914484d7f4c9b062e619e9060200161066e565b6003546001600160a01b031633146109285760405162461bcd60e51b81526004016100cf90610d49565b610930610bfb565b600380600354600160a01b900460ff16600681111561095157610951610c66565b1461096e5760405162461bcd60e51b81526004016100cf90610c7c565b6001546001600160a01b038381169116148061099757506002546001600160a01b038381169116145b6109f15760405162461bcd60e51b815260206004820152602560248201527f57696e6e6572206d75737420626520656974686572206275796572206f72207360448201526432b63632b960d91b60648201526084016100cf565b4780610a355760405162461bcd60e51b81526020600482015260136024820152724e6f2066756e647320746f2072656c6561736560681b60448201526064016100cf565b6003805460ff60a01b1916600360a11b1790556040516000906001600160a01b0385169083908381818185875af1925050503d8060008114610a93576040519150601f19603f3d011682016040523d82523d6000602084013e610a98565b606091505b5050905080610aba57604051630dcf35db60e41b815260040160405180910390fd5b6040518281526001600160a01b0385169033907fc98fd1f80a8937b1fdeb951d0b63bf7c924a1872543ae2499295625b18abe70e9060200160405180910390a3505050610b076001600055565b50565b6002546001600160a01b03163314610b6f5760405162461bcd60e51b815260206004820152602260248201527f4f6e6c792073656c6c65722063616e2063616c6c20746869732066756e63746960448201526137b760f11b60648201526084016100cf565b600180600354600160a01b900460ff166006811115610b9057610b90610c66565b14610bad5760405162461bcd60e51b81526004016100cf90610c7c565b6003805460ff60a01b1916600160a11b1790556002546040516001600160a01b03909116907f9ef187ef1edc55003d878adbf39e85f00be1c004111e00a0852b44502d879ca490600090a250565b600260005403610c1e57604051633ee5aeb560e01b815260040160405180910390fd5b6002600055565b60208082526021908201527f4f6e6c792062757965722063616e2063616c6c20746869732066756e6374696f6040820152603760f91b606082015260800190565b634e487b7160e01b600052602160045260246000fd5b6020808252600d908201526c496e76616c696420737461746560981b604082015260600190565b6020810160078310610cc557634e487b7160e01b600052602160045260246000fd5b91905290565b600060208083528351808285015260005b81811015610cf857858101830151858201604001528201610cdc565b506000604082860101526040601f19601f8301168501019250505092915050565b600060208284031215610d2b57600080fd5b81356001600160a01b0381168114610d4257600080fd5b9392505050565b60208082526023908201527f4f6e6c7920617262697465722063616e2063616c6c20746869732066756e637460408201526234b7b760e91b60608201526080019056fea26469706673582212208b2ff9ec61931d78e42c0d5840656aa6c150807795fff9bab651b581f9c1f95864736f6c63430008140033a26469706673582212201414a72d2d6fab368576e2ba675ea0d5e42a27fc46c5ffe68816f361f20505a664736f6c63430008140033",
  "linkReferences": {},
  "deployedLinkReferences": {}
}