{
  "_format": "hh-sol-artifact-1",
  "contractName": "Escrow",
  "sourceName": "contracts/Escrow.sol",
  "abi": [
    {
      "inputs": [
        {
          "internalType": "address",
          "name": "_seller",
          "type": "address"
        },
        {
          "internalType": "address",
          "name": "_arbiter",
          "type": "address"
        }
      ],
      "stateMutability": "nonpayable",
      "type": "constructor"
    },
    {
      "inputs": [],
      "name": "EnforcedPause",
      "type": "error"
    },
    {
      "inputs": [],
      "name": "ExpectedPause",
      "type": "error"
    },
    {
      "inputs": [
        {
          "internalType": "address",
          "name": "owner",
          "type": "address"
        }
      ],
      "name": "OwnableInvalidOwner",
      "type": "error"
    },
    {
      "inputs": [
        {
          "internalType": "address",
          "name": "account",
          "type": "address"
        }
      ],
      "name": "OwnableUnauthorizedAccount",
      "type": "error"
    },
    {
      "anonymous": false,
      "inputs": [
        {
          "indexed": true,
          "internalType": "address",
          "name": "buyer",
          "type": "address"
        },
        {
          "indexed": false,
          "internalType": "uint256",
          "name": "amount",
          "type": "uint256"
        }
      ],
      "name": "Deposited",
      "type": "event"
    },
    {
      "anonymous": false,
      "inputs": [
        {
          "indexed": true,
          "internalType": "address",
          "name": "resolver",
          "type": "address"
        },
        {
          "indexed": true,
          "internalType": "address",
          "name": "winner",
          "type": "address"
        },
        {
          "indexed": false,
          "internalType": "uint256",
          "name": "amount",
          "type": "uint256"
        }
      ],
      "name": "DisputeResolved",
      "type": "event"
    },
    {
      "anonymous": false,
      "inputs": [
        {
          "indexed": true,
          "internalType": "address",
          "name": "previousOwner",
          "type": "address"
        },
        {
          "indexed": true,
          "internalType": "address",
          "name": "newOwner",
          "type": "address"
        }
      ],
      "name": "OwnershipTransferred",
      "type": "event"
    },
    {
      "anonymous": false,
      "inputs": [
        {
          "indexed": false,
          "internalType": "address",
          "name": "account",
          "type": "address"
        }
      ],
      "name": "Paused",
      "type": "event"
    },
    {
      "anonymous": false,
      "inputs": [
        {
          "indexed": true,
          "internalType": "address",
          "name": "buyer",
          "type": "address"
        },
        {
          "indexed": false,
          "internalType": "uint256",
          "name": "amount",
          "type": "uint256"
        }
      ],
      "name": "Refunded",
      "type": "event"
    },
    {
      "anonymous": false,
      "inputs": [
        {
          "indexed": true,
          "internalType": "address",
          "name": "seller",
          "type": "address"
        },
        {
          "indexed": false,
          "internalType": "uint256",
          "name": "amount",
          "type": "uint256"
        }
      ],
      "name": "Released",
      "type": "event"
    },
    {
      "anonymous": false,
      "inputs": [
        {
          "indexed": false,
          "internalType": "address",
          "name": "account",
          "type": "address"
        }
      ],
      "name": "Unpaused",
      "type": "event"
    },
    {
      "inputs": [],
      "name": "arbiter",
      "outputs": [
        {
          "internalType": "address",
          "name": "",
          "type": "address"
        }
      ],
      "stateMutability": "view",
      "type": "function"
    },
    {
      "inputs": [],
      "name": "buyer",
      "outputs": [
        {
          "internalType": "address",
          "name": "",
          "type": "address"
        }
      ],
      "stateMutability": "view",
      "type": "function"
    },
    {
      "inputs": [],
      "name": "claimRefundAfterDeadline",
      "outputs": [],
      "stateMutability": "nonpayable",
      "type": "function"
    },
    {
      "inputs": [],
      "name": "currentState",
      "outputs": [
        {
          "internalType": "enum Escrow.State",
          "name": "",
          "type": "uint8"
        }
      ],
      "stateMutability": "view",
      "type": "function"
    },
    {
      "inputs": [],
      "name": "deadline",
      "outputs": [
        {
          "internalType": "uint256",
          "name": "",
          "type": "uint256"
        }
      ],
      "stateMutability": "view",
      "type": "function"
    },
    {
      "inputs": [],
      "name": "deposit",
      "outputs": [],
      "stateMutability": "payable",
      "type": "function"
    },
    {
      "inputs": [],
      "name": "getBalance",
      "outputs": [
        {
          "internalType": "uint256",
          "name": "",
          "type": "uint256"
        }
      ],
      "stateMutability": "view",
      "type": "function"
    },
    {
      "inputs": [],
      "name": "getState",
      "outputs": [
        {
          "internalType": "enum Escrow.State",
          "name": "",
          "type": "uint8"
        }
      ],
      "stateMutability": "view",
      "type": "function"
    },
    {
      "inputs": [],
      "name": "owner",
      "outputs": [
        {
          "internalType": "address",
          "name": "",
          "type": "address"
        }
      ],
      "stateMutability": "view",
      "type": "function"
    },
    {
      "inputs": [],
      "name": "pause",
      "outputs": [],
      "stateMutability": "nonpayable",
      "type": "function"
    },
    {
      "inputs": [],
      "name": "paused",
      "outputs": [
        {
          "internalType": "bool",
          "name": "",
          "type": "bool"
        }
      ],
      "stateMutability": "view",
      "type": "function"
    },
    {
      "inputs": [],
      "name": "refund",
      "outputs": [],
      "stateMutability": "nonpayable",
      "type": "function"
    },
    {
      "inputs": [],
      "name": "release",
      "outputs": [],
      "stateMutability": "nonpayable",
      "type": "function"
    },
    {
      "inputs": [],
      "name": "renounceOwnership",
      "outputs": [],
      "stateMutability": "nonpayable",
      "type": "function"
    },
    {
      "inputs": [
        {
          "internalType": "address",
          "name": "_winner",
          "type": "address"
        }
      ],
      "name": "resolveDispute",
      "outputs": [],
      "stateMutability": "nonpayable",
      "type": "function"
    },
    {
      "inputs": [],
      "name": "seller",
      "outputs": [
        {
          "internalType": "address",
          "name": "",
          "type": "address"
        }
      ],
      "stateMutability": "view",
      "type": "function"
    },
    {
      "inputs": [
        {
          "internalType": "address",
          "name": "newOwner",
          "type": "address"
        }
      ],
      "name": "transferOwnership",
      "outputs": [],
      "stateMutability": "nonpayable",
      "type": "function"
    },
    {
      "inputs": [],
      "name": "unpause",
      "outputs": [],
      "stateMutability": "nonpayable",
      "type": "function"
    }
  ],
  "bytecode": "0x608060405234801561001057600080fd5b50604051610f6b380380610f6b83398101604081905261002f91610171565b338061005657604051631e4fbdf760e01b8152600060048201526024015b60405180910390fd5b61005f816100fc565b506001600160a01b0382166100b65760405162461bcd60e51b815260206004820152601d60248201527f53656c6c657220616464726573732063616e6e6f74206265207a65726f000000604482015260640161004d565b600180546001600160a01b03199081163317909155600280546001600160a01b03948516908316179055600380549290931691161790556005805460ff191690556101a4565b600080546001600160a01b03838116610100818102610100600160a81b0319851617855560405193049190911692909183917f8be0079c531659141344cd1fd0a4f28419497f9722a3daafe3b4186f6b6457e091a35050565b80516001600160a01b038116811461016c57600080fd5b919050565b6000806040838503121561018457600080fd5b61018d83610155565b915061019b60208401610155565b90509250929050565b610db8806101b36000396000f3fe6080604052600436106101095760003560e01c80637150d8ae11610095578063d0e30db011610064578063d0e30db01461028e578063d846118214610296578063f2fde38b146102b6578063f7004a00146102d6578063fe25e00a146102eb57600080fd5b80637150d8ae146102215780638456cb591461024157806386d1a69f146102565780638da5cb5b1461026b57600080fd5b806329dcb0cf116100dc57806329dcb0cf146101a75780633f4ba83a146101bd578063590e1ae3146101d45780635c975abb146101e9578063715018a61461020c57600080fd5b806308551a531461010e5780630c3f6acf1461014b57806312065fe0146101725780631865c57d1461018f575b600080fd5b34801561011a57600080fd5b5060025461012e906001600160a01b031681565b6040516001600160a01b0390911681526020015b60405180910390f35b34801561015757600080fd5b506005546101659060ff1681565b6040516101429190610c72565b34801561017e57600080fd5b50475b604051908152602001610142565b34801561019b57600080fd5b5060055460ff16610165565b3480156101b357600080fd5b5061018160045481565b3480156101c957600080fd5b506101d261030b565b005b3480156101e057600080fd5b506101d261031d565b3480156101f557600080fd5b5060005460ff166040519015158152602001610142565b34801561021857600080fd5b506101d26104df565b34801561022d57600080fd5b5060015461012e906001600160a01b031681565b34801561024d57600080fd5b506101d26104f1565b34801561026257600080fd5b506101d2610501565b34801561027757600080fd5b5060005461010090046001600160a01b031661012e565b6101d26106c3565b3480156102a257600080fd5b506101d26102b1366004610c9a565b6107d1565b3480156102c257600080fd5b506101d26102d1366004610c9a565b610a01565b3480156102e257600080fd5b506101d2610a3f565b3480156102f757600080fd5b5060035461012e906001600160a01b031681565b610313610afa565b61031b610b2d565b565b60018060055460ff16600481111561033757610337610c5c565b1461035d5760405162461bcd60e51b815260040161035490610cca565b60405180910390fd5b610365610b7f565b6001546001600160a01b031633148061038857506003546001600160a01b031633145b6103d45760405162461bcd60e51b815260206004820181905260248201527f4f6e6c79206275796572206f7220617262697465722063616e20726566756e646044820152606401610354565b47806104175760405162461bcd60e51b8152602060048201526012602482015271139bc8199d5b991cc81d1bc81c99599d5b9960721b6044820152606401610354565b6005805460ff191660031790556001546040516000916001600160a01b03169083908381818185875af1925050503d8060008114610471576040519150601f19603f3d011682016040523d82523d6000602084013e610476565b606091505b50509050806104975760405162461bcd60e51b815260040161035490610cf1565b6001546040518381526001600160a01b03909116907fd7dee2702d63ad89917b6a4da9981c90c4d24f8c2bdfd64c604ecae57d8d0651906020015b60405180910390a2505050565b6104e7610afa565b61031b6000610ba3565b6104f9610afa565b61031b610bfc565b60018060055460ff16600481111561051b5761051b610c5c565b146105385760405162461bcd60e51b815260040161035490610cca565b610540610b7f565b6001546001600160a01b031633148061056357506003546001600160a01b031633145b6105bf5760405162461bcd60e51b815260206004820152602760248201527f4f6e6c79206275796572206f7220617262697465722063616e2072656c656173604482015266652066756e647360c81b6064820152608401610354565b47806106035760405162461bcd60e51b81526020600482015260136024820152724e6f2066756e647320746f2072656c6561736560681b6044820152606401610354565b6005805460ff19166002908117909155546040516000916001600160a01b03169083908381818185875af1925050503d806000811461065e576040519150601f19603f3d011682016040523d82523d6000602084013e610663565b606091505b50509050806106845760405162461bcd60e51b815260040161035490610cf1565b6002546040518381526001600160a01b03909116907fb21fb52d5749b80f3182f8c6992236b5e5576681880914484d7f4c9b062e619e906020016104d2565b6001546001600160a01b031633146106ed5760405162461bcd60e51b815260040161035490610d1a565b60008060055460ff16600481111561070757610707610c5c565b146107245760405162461bcd60e51b815260040161035490610cca565b61072c610b7f565b6000341161077c5760405162461bcd60e51b815260206004820152601860248201527f4d7573742073656e642045544820746f206465706f73697400000000000000006044820152606401610354565b6005805460ff191660011790556107964262278d00610d5b565b60045560405134815233907f2da466a7b24304f47e87fa2e1e5a81b9831ce54fec19055ce277ca2f39ba42c49060200160405180910390a250565b6003546001600160a01b031633146108375760405162461bcd60e51b815260206004820152602360248201527f4f6e6c7920617262697465722063616e2063616c6c20746869732066756e637460448201526234b7b760e91b6064820152608401610354565b60018060055460ff16600481111561085157610851610c5c565b1461086e5760405162461bcd60e51b815260040161035490610cca565b610876610b7f565b6001546001600160a01b038381169116148061089f57506002546001600160a01b038381169116145b6108f95760405162461bcd60e51b815260206004820152602560248201527f57696e6e6572206d75737420626520656974686572206275796572206f72207360448201526432b63632b960d91b6064820152608401610354565b478061093d5760405162461bcd60e51b81526020600482015260136024820152724e6f2066756e647320746f2072656c6561736560681b6044820152606401610354565b6005805460ff191660041790556040516000906001600160a01b0385169083908381818185875af1925050503d8060008114610995576040519150601f19603f3d011682016040523d82523d6000602084013e61099a565b606091505b50509050806109bb5760405162461bcd60e51b815260040161035490610cf1565b6040518281526001600160a01b0385169033907fc98fd1f80a8937b1fdeb951d0b63bf7c924a1872543ae2499295625b18abe70e9060200160405180910390a350505050565b610a09610afa565b6001600160a01b038116610a3357604051631e4fbdf760e01b815260006004820152602401610354565b610a3c81610ba3565b50565b6001546001600160a01b03163314610a695760405162461bcd60e51b815260040161035490610d1a565b60018060055460ff166004811115610a8357610a83610c5c565b14610aa05760405162461bcd60e51b815260040161035490610cca565b610aa8610b7f565b6004544210156103d45760405162461bcd60e51b815260206004820152601760248201527f446561646c696e65206e6f7420706173736564207965740000000000000000006044820152606401610354565b6000546001600160a01b0361010090910416331461031b5760405163118cdaa760e01b8152336004820152602401610354565b610b35610c39565b6000805460ff191690557f5db9ee0a495bf2e6ff9c91a7834c1ba4fdd244a5e8aa4e537bd38aeae4b073aa335b6040516001600160a01b03909116815260200160405180910390a1565b60005460ff161561031b5760405163d93c066560e01b815260040160405180910390fd5b600080546001600160a01b03838116610100818102610100600160a81b0319851617855560405193049190911692909183917f8be0079c531659141344cd1fd0a4f28419497f9722a3daafe3b4186f6b6457e091a35050565b610c04610b7f565b6000805460ff191660011790557f62e78cea01bee320cd4e420270b5ea74000d11b0c9f74754ebdbfc544b05a258610b623390565b60005460ff1661031b57604051638dfc202b60e01b815260040160405180910390fd5b634e487b7160e01b600052602160045260246000fd5b6020810160058310610c9457634e487b7160e01b600052602160045260246000fd5b91905290565b600060208284031215610cac57600080fd5b81356001600160a01b0381168114610cc357600080fd5b9392505050565b6020808252600d908201526c496e76616c696420737461746560981b604082015260600190565b6020808252600f908201526e151c985b9cd9995c8819985a5b1959608a1b604082015260600190565b60208082526021908201527f4f6e6c792062757965722063616e2063616c6c20746869732066756e6374696f6040820152603760f91b606082015260800190565b80820180821115610d7c57634e487b7160e01b600052601160045260246000fd5b9291505056fea2646970667358221220d6a4d1ad278b3fd8ec4dd2c59a65c1f26362d1f274737151597f06f309d842cf64736f6c63430008140033",
  "linkReferences": {},
  "deployedLinkReferences": {}
}