{
  "_format": "hh-sol-artifact-1",
  "contractName": "Escrow",
  "sourceName": "contracts/Escrow.sol",
  "abi": [
    {
      "inputs": [
        {
          "internalType": "address",
          "name": "_seller",
          "type": "address"
        },
        {
          "internalType": "address",
          "name": "_arbiter",
          "type": "address"
        }
      ],
      "stateMutability": "nonpayable",
      "type": "constructor"
    },
    {
      "anonymous": false,
      "inputs": [
        {
          "indexed": true,
          "internalType": "address",
          "name": "buyer",
          "type": "address"
        },
        {
          "indexed": false,
          "internalType": "uint256",
          "name": "amount",
          "type": "uint256"
        }
      ],
      "name": "Deposited",
      "type": "event"
    },
    {
      "anonymous": false,
      "inputs": [
        {
          "indexed": true,
          "internalType": "address",
          "name": "resolver",
          "type": "address"
        },
        {
          "indexed": true,
          "internalType": "address",
          "name": "winner",
          "type": "address"
        },
        {
          "indexed": false,
          "internalType": "uint256",
          "name": "amount",
          "type": "uint256"
        }
      ],
      "name": "DisputeResolved",
      "type": "event"
    },
    {
      "anonymous": false,
      "inputs": [
        {
          "indexed": true,
          "internalType": "address",
          "name": "buyer",
          "type": "address"
        },
        {
          "indexed": false,
          "internalType": "uint256",
          "name": "amount",
          "type": "uint256"
        }
      ],
      "name": "Refunded",
      "type": "event"
    },
    {
      "anonymous": false,
      "inputs": [
        {
          "indexed": true,
          "internalType": "address",
          "name": "seller",
          "type": "address"
        },
        {
          "indexed": false,
          "internalType": "uint256",
          "name": "amount",
          "type": "uint256"
        }
      ],
      "name": "Released",
      "type": "event"
    },
    {
      "inputs": [],
      "name": "arbiter",
      "outputs": [
        {
          "internalType": "address",
          "name": "",
          "type": "address"
        }
      ],
      "stateMutability": "view",
      "type": "function"
    },
    {
      "inputs": [],
      "name": "buyer",
      "outputs": [
        {
          "internalType": "address",
          "name": "",
          "type": "address"
        }
      ],
      "stateMutability": "view",
      "type": "function"
    },
    {
      "inputs": [],
      "name": "currentState",
      "outputs": [
        {
          "internalType": "enum Escrow.State",
          "name": "",
          "type": "uint8"
        }
      ],
      "stateMutability": "view",
      "type": "function"
    },
    {
      "inputs": [],
      "name": "getBalance",
      "outputs": [
        {
          "internalType": "uint256",
          "name": "",
          "type": "uint256"
        }
      ],
      "stateMutability": "view",
      "type": "function"
    },
    {
      "inputs": [],
      "name": "getState",
      "outputs": [
        {
          "internalType": "string",
          "name": "",
          "type": "string"
        }
      ],
      "stateMutability": "view",
      "type": "function"
    },
    {
      "inputs": [],
      "name": "refund",
      "outputs": [],
      "stateMutability": "nonpayable",
      "type": "function"
    },
    {
      "inputs": [],
      "name": "release",
      "outputs": [],
      "stateMutability": "nonpayable",
      "type": "function"
    },
    {
      "inputs": [
        {
          "internalType": "address",
          "name": "_winner",
          "type": "address"
        }
      ],
      "name": "resolveDispute",
      "outputs": [],
      "stateMutability": "nonpayable",
      "type": "function"
    },
    {
      "inputs": [],
      "name": "seller",
      "outputs": [
        {
          "internalType": "address",
          "name": "",
          "type": "address"
        }
      ],
      "stateMutability": "view",
      "type": "function"
    },
    {
      "stateMutability": "payable",
      "type": "receive"
    }
  ],
  "bytecode": "0x608060405234801561001057600080fd5b50604051610c28380380610c2883398101604081905261002f916100eb565b6001600160a01b0382166100895760405162461bcd60e51b815260206004820152601d60248201527f53656c6c657220616464726573732063616e6e6f74206265207a65726f000000604482015260640160405180910390fd5b600080546001600160a01b03199081163317909155600180546001600160a01b039485169216919091179055600280546001600160a81b0319169190921617905561011e565b80516001600160a01b03811681146100e657600080fd5b919050565b600080604083850312156100fe57600080fd5b610107836100cf565b9150610115602084016100cf565b90509250929050565b610afb8061012d6000396000f3fe60806040526004361061008a5760003560e01c8063590e1ae311610059578063590e1ae31461021f5780637150d8ae1461023657806386d1a69f14610256578063d84611821461026b578063fe25e00a1461028b57600080fd5b806308551a53146101775780630c3f6acf146101b457806312065fe0146101e25780631865c57d146101fd57600080fd5b3661017257600080600254600160a01b900460ff1660048111156100b0576100b06109b9565b146100d65760405162461bcd60e51b81526004016100cd906109cf565b60405180910390fd5b600034116101265760405162461bcd60e51b815260206004820152601860248201527f4d7573742073656e642045544820746f206465706f736974000000000000000060448201526064016100cd565b60028054600160a01b60ff60a01b1990911617905560405134815233907f2da466a7b24304f47e87fa2e1e5a81b9831ce54fec19055ce277ca2f39ba42c49060200160405180910390a2005b600080fd5b34801561018357600080fd5b50600154610197906001600160a01b031681565b6040516001600160a01b0390911681526020015b60405180910390f35b3480156101c057600080fd5b506002546101d590600160a01b900460ff1681565b6040516101ab91906109f6565b3480156101ee57600080fd5b506040514781526020016101ab565b34801561020957600080fd5b506102126102ab565b6040516101ab9190610a1e565b34801561022b57600080fd5b50610234610400565b005b34801561024257600080fd5b50600054610197906001600160a01b031681565b34801561026257600080fd5b506102346105be565b34801561027757600080fd5b50610234610286366004610a6c565b610784565b34801561029757600080fd5b50600254610197906001600160a01b031681565b60606000600254600160a01b900460ff1660048111156102cd576102cd6109b9565b036102fd575060408051808201909152601081526f1055d05255125391d7d410565351539560821b602082015290565b6001600254600160a01b900460ff16600481111561031d5761031d6109b9565b0361034e57506040805180820190915260118152704157414954494e475f44454c495645525960781b602082015290565b60028054600160a01b900460ff16600481111561036d5761036d6109b9565b036103955750604080518082019091526008815267434f4d504c45544560c01b602082015290565b6003600254600160a01b900460ff1660048111156103b5576103b56109b9565b036103dd5750604080518082019091526008815267149151955391115160c21b602082015290565b50604080518082019091526008815267111254d41555115160c21b602082015290565b600180600254600160a01b900460ff166004811115610421576104216109b9565b1461043e5760405162461bcd60e51b81526004016100cd906109cf565b6000546001600160a01b031633148061046157506002546001600160a01b031633145b6104ad5760405162461bcd60e51b815260206004820181905260248201527f4f6e6c79206275796572206f7220617262697465722063616e20726566756e6460448201526064016100cd565b47806104f05760405162461bcd60e51b8152602060048201526012602482015271139bc8199d5b991cc81d1bc81c99599d5b9960721b60448201526064016100cd565b6002805460ff60a01b1916600360a01b179055600080546040516001600160a01b039091169083908381818185875af1925050503d8060008114610550576040519150601f19603f3d011682016040523d82523d6000602084013e610555565b606091505b50509050806105765760405162461bcd60e51b81526004016100cd90610a9c565b6000546040518381526001600160a01b03909116907fd7dee2702d63ad89917b6a4da9981c90c4d24f8c2bdfd64c604ecae57d8d0651906020015b60405180910390a2505050565b600180600254600160a01b900460ff1660048111156105df576105df6109b9565b146105fc5760405162461bcd60e51b81526004016100cd906109cf565b6000546001600160a01b031633148061061f57506002546001600160a01b031633145b61067b5760405162461bcd60e51b815260206004820152602760248201527f4f6e6c79206275796572206f7220617262697465722063616e2072656c656173604482015266652066756e647360c81b60648201526084016100cd565b47806106bf5760405162461bcd60e51b81526020600482015260136024820152724e6f2066756e647320746f2072656c6561736560681b60448201526064016100cd565b6002805460ff60a01b1916600160a11b1790556001546040516000916001600160a01b03169083908381818185875af1925050503d806000811461071f576040519150601f19603f3d011682016040523d82523d6000602084013e610724565b606091505b50509050806107455760405162461bcd60e51b81526004016100cd90610a9c565b6001546040518381526001600160a01b03909116907fb21fb52d5749b80f3182f8c6992236b5e5576681880914484d7f4c9b062e619e906020016105b1565b6002546001600160a01b031633146107ea5760405162461bcd60e51b815260206004820152602360248201527f4f6e6c7920617262697465722063616e2063616c6c20746869732066756e637460448201526234b7b760e91b60648201526084016100cd565b600180600254600160a01b900460ff16600481111561080b5761080b6109b9565b146108285760405162461bcd60e51b81526004016100cd906109cf565b6000546001600160a01b038381169116148061085157506001546001600160a01b038381169116145b6108ab5760405162461bcd60e51b815260206004820152602560248201527f57696e6e6572206d75737420626520656974686572206275796572206f72207360448201526432b63632b960d91b60648201526084016100cd565b47806108ef5760405162461bcd60e51b81526020600482015260136024820152724e6f2066756e647320746f2072656c6561736560681b60448201526064016100cd565b6002805460ff60a01b1916600160a21b1790556040516000906001600160a01b0385169083908381818185875af1925050503d806000811461094d576040519150601f19603f3d011682016040523d82523d6000602084013e610952565b606091505b50509050806109735760405162461bcd60e51b81526004016100cd90610a9c565b6040518281526001600160a01b0385169033907fc98fd1f80a8937b1fdeb951d0b63bf7c924a1872543ae2499295625b18abe70e9060200160405180910390a350505050565b634e487b7160e01b600052602160045260246000fd5b6020808252600d908201526c496e76616c696420737461746560981b604082015260600190565b6020810160058310610a1857634e487b7160e01b600052602160045260246000fd5b91905290565b600060208083528351808285015260005b81811015610a4b57858101830151858201604001528201610a2f565b506000604082860101526040601f19601f8301168501019250505092915050565b600060208284031215610a7e57600080fd5b81356001600160a01b0381168114610a9557600080fd5b9392505050565b6020808252600f908201526e151c985b9cd9995c8819985a5b1959608a1b60408201526060019056fea2646970667358221220c04951bffac35dd1adf2016decfc104217056f849f7660645c6fa3f3c4153f3264736f6c63430008130033",
  "linkReferences": {},
  "deployedLinkReferences": {}
}