{
  "_format": "hh-sol-artifact-1",
  "contractName": "Attacker",
  "sourceName": "contracts/Attacker.sol",
  "abi": [
    {
      "inputs": [],
      "stateMutability": "nonpayable",
      "type": "constructor"
    },
    {
      "inputs": [
        {
          "internalType": "address",
          "name": "escrowAddress",
          "type": "address"
        }
      ],
      "name": "doConfirmShipment",
      "outputs": [],
      "stateMutability": "nonpayable",
      "type": "function"
    },
    {
      "inputs": [],
      "name": "escrow",
      "outputs": [
        {
          "internalType": "contract Escrow",
          "name": "",
          "type": "address"
        }
      ],
      "stateMutability": "view",
      "type": "function"
    },
    {
      "inputs": [],
      "name": "getBalance",
      "outputs": [
        {
          "internalType": "uint256",
          "name": "",
          "type": "uint256"
        }
      ],
      "stateMutability": "view",
      "type": "function"
    },
    {
      "inputs": [],
      "name": "owner",
      "outputs": [
        {
          "internalType": "address",
          "name": "",
          "type": "address"
        }
      ],
      "stateMutability": "view",
      "type": "function"
    },
    {
      "inputs": [
        {
          "internalType": "address payable",
          "name": "_escrowAddress",
          "type": "address"
        }
      ],
      "name": "setEscrow",
      "outputs": [],
      "stateMutability": "nonpayable",
      "type": "function"
    },
    {
      "stateMutability": "payable",
      "type": "receive"
    }
  ],
  "bytecode": "0x608060405234801561001057600080fd5b50600080546001600160a01b031916331790556102d4806100326000396000f3fe60806040526004361061004e5760003560e01c806312065fe0146100d45780633e12a8be146100f45780638da5cb5b14610114578063c10c35461461014c578063e2fdcc171461016c57600080fd5b366100cf576001546001600160a01b0316156100cd57600160009054906101000a90046001600160a01b03166001600160a01b03166386d1a69f6040518163ffffffff1660e01b8152600401600060405180830381600087803b1580156100b457600080fd5b505af11580156100c8573d6000803e3d6000fd5b505050505b005b600080fd5b3480156100e057600080fd5b506040514781526020015b60405180910390f35b34801561010057600080fd5b506100cd61010f36600461027a565b61018c565b34801561012057600080fd5b50600054610134906001600160a01b031681565b6040516001600160a01b0390911681526020016100eb565b34801561015857600080fd5b506100cd61016736600461027a565b6101e2565b34801561017857600080fd5b50600154610134906001600160a01b031681565b806001600160a01b031663feb71d9a6040518163ffffffff1660e01b8152600401600060405180830381600087803b1580156101c757600080fd5b505af11580156101db573d6000803e3d6000fd5b5050505050565b6000546001600160a01b031633146102405760405162461bcd60e51b815260206004820152601960248201527f4f6e6c79206f776e65722063616e2073657420657363726f7700000000000000604482015260640160405180910390fd5b600180546001600160a01b0319166001600160a01b0392909216919091179055565b6001600160a01b038116811461027757600080fd5b50565b60006020828403121561028c57600080fd5b813561029781610262565b939250505056fea2646970667358221220a25844e02fdbef5b9f498d811381a98fc431b37c29c0f4146e7adf72d1ecd58364736f6c63430008140033",
  "linkReferences": {},
  "deployedLinkReferences": {}
}