{
  "_format": "hh-sol-artifact-1",
  "contractName": "PaymentRejector",
  "sourceName": "contracts/PaymentRejector.sol",
  "abi": [
    {
      "inputs": [
        {
          "internalType": "address",
          "name": "escrowAddress",
          "type": "address"
        }
      ],
      "name": "doConfirmShipment",
      "outputs": [],
      "stateMutability": "nonpayable",
      "type": "function"
    },
    {
      "stateMutability": "payable",
      "type": "receive"
    }
  ],
  "bytecode": "0x608060405234801561001057600080fd5b50610149806100206000396000f3fe6080604052600436106100225760003560e01c80633e12a8be1461006b57600080fd5b366100665760405162461bcd60e51b815260206004820152601060248201526f14185e5b595b9d081c995a9958dd195960821b604482015260640160405180910390fd5b600080fd5b34801561007757600080fd5b5061008b6100863660046100e3565b61008d565b005b806001600160a01b031663feb71d9a6040518163ffffffff1660e01b8152600401600060405180830381600087803b1580156100c857600080fd5b505af11580156100dc573d6000803e3d6000fd5b5050505050565b6000602082840312156100f557600080fd5b81356001600160a01b038116811461010c57600080fd5b939250505056fea2646970667358221220fcb2327a723e5bb095e67a279f7dc7b518e2172e5518cb726f292470168be74664736f6c63430008140033",
  "linkReferences": {},
  "deployedLinkReferences": {}
}